:100000000C943E000C9453000C9453000C94530039
:100010000C9453000C9453000C9453000C94530014
:100020000C9453000C9453000C9453000C94530004
:100030000C9453000C9453000C9453000C945300F4
:100040000C9453000C9453000C9453000C945300E4
:100050000C9453000C9453000C9453000C945300D4
:100060000C9453000C9453000C9453000C945300C4
:100070000C9453000C9453000C94530011241FBE95
:10008000CFEFD8E0DEBFCDBF11E0A0E0B1E0E8E8FF
:10009000FAE002C005900D92A431B107D9F70E9491
:1000A00054020C9442050C9400008830C9F038F4D6
:1000B000823091F0843091F08130C1F419C08032E7
:1000C00089F020F4803191F485E00895803461F066
:1000D000803861F488E0089582E0089583E008950F
:1000E00084E0089586E0089587E0089580E008950B
:1000F00081E008958830C9F038F4823091F084307E
:1001000091F08130C1F419C0803289F020F480313F
:1001100091F485E60895803461F0803861F488E6D2
:10012000089582E6089583E6089584E6089586E6B4
:10013000089587E6089580E0089581E60895815343
:10014000883030F4E82FF0E0E050FF4F80810895D0
:1001500080E008958156883030F4E82FF0E0E050D8
:10016000FF4F8081089580E00895CF93DF93CDB74E
:10017000DEB7D4500FB6F894DEBF0FBECDBF81B14D
:1001800011B882B19FEF92B987B1836087B988B106
:100190008C7F88B987B1806C87B988B18F7388B933
:1001A0008AB180638AB98BB18F7C8BB98AB1806C3C
:1001B0008AB98BB18F738BB9579A5F9A84B194B90E
:1001C00085B115B8712CC12C10E080E000E0D12C75
:1001D000EE24E394F12C28E0A22E21E0B22E9E0121
:1001E0002F5F3F4F490130EF232ED110BCC020E0DC
:1001F00030E040B1922F50E0022E02C05595479555
:100200000A94E2F740FD16C01430A0F441E0410F1B
:1002100010FD00C10E2D01C0000F9A95EAF7142FB2
:1002200080E04FEF53ED60E3415050406040E1F714
:1002300000C000002F5F3F4F28303105D1F605B9CF
:10024000282F2C7070E1279F90011124982F937014
:10025000292B28B9982F907F9BB9123019F4782E4A
:10026000C02EC5CF143019F60E945500D82E802F0D
:100270000E947A00182F872D0E945500082F8C2D80
:100280000E947A001F92DF92212F012E000C330B67
:100290003F931F931F920F93282F082E000C330BB0
:1002A0003F938F93BF92AF929F928F920E9458027A
:1002B000C4010E943F028FEF93ED20E381509040F4
:1002C0002040E1F700C000003FEF35B943EC48B9EA
:1002D0002BB80E943802682E8093C6005FEF60E75B
:1002E00072E0515060407040E1F700C000000E9491
:1002F0003802582E8093C6008FEF90E722E081509D
:1003000090402040E1F700C000000E943802482ED3
:100310008093C6003FEF40E752E0315040405040EC
:10032000E1F700C000000E943802382E8093C6001A
:100330006FEF70E782E0615070408040E1F700C0ED
:1003400000009FEF23ED30E3915020403040E1F773
:1003500000C000000FB6F894DEBF0FBECDBF10E0A6
:10036000DD24D39402C0123078F4862D0E94AA00B6
:10037000082F852D0E949F0005B9282F2C7050E171
:10038000259F900111240EC0842D0E94AA00082FE1
:10039000832D0E949F0005B9282F2C7060E1269FB5
:1003A00090011124982F9370292B28B9982F907FB2
:1003B0009BB9113039F040F0123031F0133011F0A8
:1003C00020E003C0282F01C0202F40E050E030E0A3
:1003D00060B170E0042E02C0759567950A94E2F74B
:1003E00060FD0CC0143050F4B701042E02C0660F3B
:1003F000771F0A94E2F762177307A1F04F5F5F4F10
:100400004830510529F7143009F0EFCE10E080E0B4
:1004100000E0EDCEB70101C0660F9A95EAF7862B92
:10042000142FFFCE1F5F7FEF93ED60E3715090407C
:100430006040E1F700C00000E1CF1092C50087E600
:100440008093C40088E18093C100E2ECF0E08081F9
:10045000877F8083808184608083808180628083C5
:1004600008959091C00095FFFCCF8093C600089539
:100470008091C00087FFFCCF8091C6000895CF9384
:10048000DF93EC018991882319F00E943102FACFA1
:10049000DF91CF9108959091C00095FFFCCF80939C
:1004A000C60080E090E008950E941D020E94B50001
:1004B000AEE0B0E0EEE5F2E00C9419050D891E897E
:1004C00086E08C831A8309838FEF9FE79E838D8359
:1004D000AE01475E5F4F6F89788DCE0101960E9415
:1004E0007A02EF81F885E00FF11F10822E96E4E08A
:1004F0000C943505ABE0B0E0E0E8F2E00C940B05BD
:100500006C017B018A01FC0117821682838181FFC5
:10051000CCC1CE0101963C01F6019381F70193FD18
:10052000859193FF81917F01882309F4BAC18532B7
:1005300039F493FD859193FF81917F01853229F4F0
:10054000B60190E00E947104E7CF912C212C312C50
:10055000FFE1F315D8F08B3279F038F4803279F07E
:100560008332A1F4232D20611DC08D3261F08033D0
:1005700069F4232D216016C0832D8260382EE32D6F
:10058000E4603E2E2AC0F32DF8601DC037FC2DC05C
:1005900020ED280F2A3040F08E32B9F436FC81C1AC
:1005A000232D2064322E19C036FE06C08AE0989EA4
:1005B000200D1124922E11C0EAE02E9E200D112450
:1005C000222EF32DF0623F2E08C08C3621F4832DAD
:1005D0008068382E02C0883641F4F70193FD85917A
:1005E00093FF81917F018111B3CF982F9F7D955407
:1005F000933028F40C5F1F4F9FE399830DC083361F
:1006000031F0833771F0833509F059C021C0F8010A
:10061000808189830E5F1F4F88248394912C53011E
:1006200013C02801F2E04F0E511CF801A080B180E8
:1006300036FE03C0692D70E002C06FEF7FEFC50189
:100640000E9466044C018201F32DFF773F2E16C0F5
:10065000280122E0420E511CF801A080B18036FE34
:1006600003C0692D70E002C06FEF7FEFC5010E94EB
:100670005B044C01F32DF0683F2E820133FC1BC05C
:10068000822D90E088169906B0F4B60180E290E0E1
:100690000E9471042A94F4CFF50137FC859137FE4E
:1006A00081915F01B60190E00E94710421102A94AB
:1006B00021E0821A91088114910471F7E8C0843610
:1006C00011F0893641F5F80137FE07C0608171816C
:1006D000828193810C5F1F4F08C060817181072E5A
:1006E000000C880B990B0E5F1F4FF32DFF763F2EEA
:1006F00097FF09C090958095709561957F4F8F4FBA
:100700009F4FF0683F2E2AE030E0A3010E94AD0425
:10071000882E861845C0853731F4232D2F7EB22EC2
:100720002AE030E025C0932D997FB92E8F36C1F095
:1007300018F4883579F0B5C0803719F0883721F082
:10074000B0C0E92FE061BE2EB4FE0DC0FB2DF460F9
:10075000BF2E09C034FE0AC0292F2660B22E06C063
:1007600028E030E005C020E130E002C020E132E0C6
:10077000F801B7FE07C060817181828193810C5FAF
:100780001F4F06C06081718180E090E00E5F1F4FB7
:10079000A3010E94AD04882E8618FB2DFF773F2E03
:1007A00036FE0DC0232D2E7FA22E891458F434FE60
:1007B0000BC032FC09C0832D8E7EA82E05C0B82C3C
:1007C000A32C03C0B82C01C0B92CA4FE0FC0FE019D
:1007D000E80DF11D8081803321F49A2D997EA92E98
:1007E00009C0A2FE06C0B394B39404C08A2D8678D3
:1007F00009F0B394A3FC11C0A0FE06C0B21488F4A3
:10080000280C922C9B180EC0B21460F4B60180E242
:1008100090E00E947104B394F7CFB21418F42B182F
:1008200002C0982C212CA4FE10C0B60180E390E0F9
:100830000E947104A2FE17C0A1FC03C088E790E0EB
:1008400002C088E590E0B6010CC08A2D867859F088
:10085000A1FE02C08BE201C080E2A7FC8DE2B601DE
:1008600090E00E947104891438F4B60180E390E0AE
:100870000E9471049A94F7CF8A94F301E80DF11D58
:100880008081B60190E00E9471048110F5CF222092
:1008900009F442CEB60180E290E00E9471042A94ED
:1008A000F6CFF6018681978102C08FEF9FEF2B96DE
:1008B000E2E10C942705FC010590615070400110A5
:1008C000D8F7809590958E0F9F1F0895FC01615079
:1008D000704001900110D8F7809590958E0F9F1F62
:1008E00008950F931F93CF93DF93FB01238121FD85
:1008F00003C08FEF9FEF2CC022FF16C046815781A7
:10090000248135814217530744F4A081B1819D01B0
:100910002F5F3F4F318320838C93268137812F5F58
:100920003F4F3783268314C08B01EC01FB01008409
:10093000F185E02D0995892BE1F6D80116968D9168
:100940009C911797019617969C938E931697CE01BC
:10095000DF91CF911F910F910895FA01AA272830B6
:1009600051F1203181F1E8946F936E7F6E5F7F4F7C
:100970008F4F9F4FAF4FB1E03ED0B4E03CD0670FF8
:10098000781F891F9A1FA11D680F791F8A1F911D4B
:10099000A11D6A0F711D811D911DA11D20D009F49B
:1009A00068943F912AE0269F11243019305D3193DD
:1009B000DEF6CF010895462F4770405D4193B3E0C6
:1009C0000FD0C9F7F6CF462F4F70405D4A3318F06D
:1009D000495D31FD4052419302D0A9F7EACFB4E01E
:1009E000A6959795879577956795BA95C9F70097D6
:1009F0006105710508959B01AC010A2E0694579577
:100A0000479537952795BA95C9F7620F731F841FCD
:100A1000951FA01D08952F923F924F925F926F9263
:100A20007F928F929F92AF92BF92CF92DF92EF927E
:100A3000FF920F931F93CF93DF93CDB7DEB7CA1BFF
:100A4000DB0B0FB6F894DEBF0FBECDBF09942A882A
:100A5000398848885F846E847D848C849B84AA84D2
:100A6000B984C884DF80EE80FD800C811B81AA815F
:100A7000B981CE0FD11D0FB6F894DEBF0FBECDBF2A
:080A8000ED010895F894FFCF89
:100A88000102040810204080202563256425632581
:040A980064200000D6
:00000001FF
